:020000041000EA
:10000000000002081B0100100D0000007D0100101F
:1000100000000000000000000000000000000000E0
:100020000000000000000000000000007901001046
:1000300000000000000000007901001079010010AC
:10004000B5010010F10100102D020010690200102E
:10005000A5020010E10200101D030010590300105A
:100060007901001079010010790100107901001068
:100070007901001079010010790100107901001058
:100080000448054B10B5834203D0044B002B00D02D
:10009000984710BD88080008880800080000000084
:1000A00006480749091A8B10C90FC91810B549101D
:1000B00003D0044B002B00D0984710BD88080008DF
:1000C000880800080000000010B5074C2378002BBA
:1000D00009D1FFF7D5FF054B002B02D0044800E003
:1000E00000BF0123237010BDC00E000800000000F7
:1000F000000F0010054B10B5002B03D00449054834
:1001000000E000BFFFF7CCFF10BDC04600000000BC
:10011000C40E0008000F00107047FFF7FDFF72B615
:100120000F4C104DAC4209DA21686268A368043BA9
:1001300002DBC858D050FAE70C34F3E70A490B4AFF
:100140000020521A02DD043A8850FCDC08480949B4
:100150000860BFF34F8F00F047F900F01DF8FEE78D
:100160000C0F0010240F0010C00E0008140F000820
:100170000008000808ED00E0FEE7FEE700B50420F7
:100180007146084202D0EFF3098002E0EFF30880E5
:10019000043000F0A9FBFEE710B562B6034800F09A
:1001A0008FF9002000F016FCFBE7C04600000810A5
:1001B000FEE700000B4B10B51B681A6888235B0133
:1001C000D158002907DAD358074A9B051B0D9B58C5
:1001D000002B00D09847C0230121044A5B00D15076
:1001E00010BDC046DC0E0008A408000800E100E0D5
:1001F0000A4B10B51B681A68094BD158002907DA59
:10020000D358084A9B051B0D9B58002B00D09847DC
:10021000C0230221044A5B00D15010BDDC0E00084F
:1002200004110000A408000800E100E00A4B10B52A
:100230001B681A68094BD158002907DAD358084AB5
:100240009B051B0D9B58002B00D09847C023042111
:10025000044A5B00D15010BDDC0E000808110000FC
:10026000A408000800E100E00A4B10B51B681A68FA
:10027000094BD158002907DAD358084A9B051B0DB2
:100280009B58002B00D09847C0230821044A5B00EC
:10029000D15010BDDC0E00080C110000A4080008AD
:1002A00000E100E00A4B10B51B681A68094BD158F1
:1002B000002907DAD358084A9B051B0D9B58002BD1
:1002C00000D09847C0231021044A5B00D15010BDD4
:1002D000DC0E000810110000A408000800E100E096
:1002E0000A4B10B51B681A68094BD158002907DA68
:1002F000D358084A9B051B0D9B58002B00D09847EC
:10030000C0232021044A5B00D15010BDDC0E000840
:1003100014110000A408000800E100E00A4B10B529
:100320001B681A68094BD158002907DAD358084AC4
:100330009B051B0D9B58002B00D09847C0234021E4
:10034000044A5B00D15010BDDC0E000818110000FB
:10035000A408000800E100E00A4B10B51B681A6809
:10036000094BD158002907DAD358084A9B051B0DC1
:100370009B58002B00D09847C0238021044A5B0083
:10038000D15010BDDC0E00081C110000A4080008AC
:1003900000E100E07047000070B5002000F068FA4E
:1003A0000D4C206000F093FA6060002000F060FACD
:1003B00065680A4BA0600A49E81800F05DFBFA2165
:1003C000084B20738900E81800F056FB20610020DC
:1003D00000F04EFA606170BD880800083F420F00CF
:1003E00040420F00E703000098211E4B49015A5874
:1003F0001D4810B502405A5080315A58FF2402401F
:100400005A504021194B0A681A64442212685A64EF
:10041000C022174B92009858A04301439950995815
:1004200014480140995001221A6092181A6012482B
:1004300000F07EF800F012FB104A13685B005B08C6
:100440001360FFF7A7FFFFF7A7FF802100230C4AE7
:100450000C4CFF319800013314508B42FAD10A4BF7
:100460009A6110BD00002040FFFFF7FF0008000860
:1004700000E100E0FF00FFFF400E001000C026403A
:10048000A4080008B10100108808000810B59024E5
:1004900000F047F8074B64011959074A1140074A11
:1004A0000A431A51102259681142FCD000F03DF85D
:1004B00010BDC04600002040FCFF00000100FA050E
:1004C000F8B590260E4C7601070000F02AF8A359E3
:1004D0000500DB439B0701D1FFF7D8FF80239B007A
:1004E000E750A259074B1A40074B1343A35110235F
:1004F00062681A42FCD0280000F017F8F8BDC04628
:1005000000002040FCFF00000300FA05000000008E
:100510000230800803D001300238FCD1C046C0460A
:100520007047EFF3108072B6704780F31088704701
:10053000014B18607047C046DC0E0008054B1B6875
:100540001A0088321B6812689B181868000AC0B22B
:100550007047C046DC0E0008044B1B681A00883246
:100560001B6812689B181868000E7047DC0E0008A4
:100570009223DB00C018034B8000C0588006800F18
:100580007047C0460000264003000020022B08D818
:100590009222D2009B18034A9B009B5801301B0AF1
:1005A0009843704700002640024B18694007C00F6F
:1005B0007047C04600002740044B054AD05803232B
:1005C0001840984200D102207047C0462415000010
:1005D0000000264010B5FFF7EFFF0023022801D1ED
:1005E000014B1B68180010BDE40E0008084A830088
:1005F000991890225201885807221040042806D1E9
:10060000044AFC309B181F225B6813401843704754
:1006100000002640FC00264010B5FFF7E7FF8823C6
:100620005B0098421FD00BD8012812D0022813D0AB
:10063000431E98410E4B404218400E4BC01810BD4F
:100640001223FF3398420AD0033398420BD0002084
:10065000F5E7094B1868F2E7FFF7BCFFEFE7FFF794
:10066000A3FFC003EBE7054A054BD058C00FF8E7DE
:1006700000EE85FF00127A00E00E00080000264020
:1006800008150000144A154B10B5D3580F249903D0
:10069000DB01DB0F890BC371114B0160D358D90407
:1006A0001B0CDBB203810F4BC90CD358818019009E
:1006B0002140817219092140C172D9029B009B0F10
:1006C0008373094BC90CD35881815A05DB01520F42
:1006D000DB0D8271038210BD000026403015000042
:1006E00034150000381500003C150000F0B5002658
:1006F00089B003AD14220021280000F08DFB2800F2
:10070000FFF7C0FF164A174BD358B34224DAAB7B2E
:10071000022B21D0AC88B4421ED03000ED79039F6B
:10072000FFF77AFF2200330031000190681C00F0CF
:100730004FFA0C00050033003A003100019800F038
:1007400047FAE6076A0832436308801859412A00CD
:10075000230000F01DFA0600300009B0F0BDC046CD
:10076000000026403015000070B50C00050018226E
:100770000021200000F050FBB0237F221F21DB006E
:10078000ED18094BAD00EB5800201A4022701A0AF0
:100790000A4062701A0C0A40A2701A01CA409B00FB
:1007A0009B0FE270237170BD00002640F0B504007D
:1007B00089B01822002102A800F02EFB200002A917
:1007C000FFF7D2FFB0230026DB00194AE3189B0095
:1007D0009B58B34229DA02AB1B79022B25D002AB1E
:1007E0005D78B54221D09F78B7421ED01B78601C3F
:1007F0000093FFF711FF33003A0031000190280009
:1008000000F0E6F90C00050033003100009A019871
:1008100000F0DEF9E6076A083243630880185941A0
:100820002A00230000F0B4F90600300009B0F0BD42
:100830000000264010B50400FFF7EEFE002C07D1A3
:10084000094A0A4BD358002B01DAFFF74FFF10BDBE
:10085000012CFCD1B023044A5B01D358002BF6DAFB
:100860000020FFF7A3FFF2E700002640301500004C
:1008700070B50600FFF77CFE9223DB000B4AF318ED
:100880009B00040098580F231840FFF7D3FF050082
:100890003000FFF779FE002805D10130A040400864
:1008A0004019E04070BD0248FCE7C0460000264009
:1008B00000127A0010B50020FFF7DAFF0400FFF7FE
:1008C0004BFE411C4808001900F0D6F810BD10B5C9
:1008D000FFF7F0FF0400FFF731FE411C4808001944
:1008E00000F0CAF810BDFEE702680A4B10B51A60A6
:1008F00042685A6082689A60C268DA6002691A6166
:1009000042695A6182699A61C269DA61FFF7EBFF55
:1009100010BDC046A00E0008254B73B586000D0023
:10092000F458042901D0012925D100200EE0A36844
:100930002B420AD1E36829001A685B686846019374
:100940000092236898471B4B1C606469002C0AD0F6
:10095000194B9842EBD1012DE9D1164A174B126879
:1009600015489A5176BD012DFCD1134B9842F4D015
:10097000124B9C51F6E7022914D026006469002C22
:10098000FBD10020002EEDD0B3682B4208D1F368D4
:1009900029001A685B68684601930092336898479B
:1009A0003669EFE7034B1B68181EDBD01E69E8E7CA
:1009B000000F0008FC0E0008FF004200E80E0008CF
:1009C0008023034A5B01D0588006C00F7047C046A1
:1009D0000000264070B50600FFF7F2FF002834D073
:1009E0001B4D6B68002B15D1FFF79BFD6B68040056
:1009F000002B1DD10423174A11690B431361012EEB
:100A00001BD030BF2000FFF790FD6C68002C16D182
:100A1000200070BD01210800FFF77EFF041EE3D017
:100A20006B68002BF4D002210120FFF775FFEFE780
:100A300004210120FFF770FFDCE720BFE2E7082177
:100A40000120FFF769FF0024E2E7034CE0E7C0461E
:100A5000000F000800ED00E0FF0042000322054BFC
:100A6000196C9143023A0A431A640222196C0A4330
:100A70001A64704700C02640002243088B4274D39A
:100A800003098B425FD3030A8B4244D3030B8B428F
:100A900028D3030C8B420DD3FF22090212BA030C98
:100AA0008B4202D31212090265D0030B8B4219D379
:100AB00000E0090AC30B8B4201D3CB03C01A524199
:100AC000830B8B4201D38B03C01A5241430B8B42E1
:100AD00001D34B03C01A5241030B8B4201D30B03CA
:100AE000C01A5241C30A8B4201D3CB02C01A5241F1
:100AF000830A8B4201D38B02C01A5241430A8B42B4
:100B000001D34B02C01A5241030A8B4201D30B029C
:100B1000C01A5241CDD2C3098B4201D3CB01C01AB6
:100B2000524183098B4201D38B01C01A52414309C0
:100B30008B4201D34B01C01A524103098B4201D3AE
:100B40000B01C01A5241C3088B4201D3CB00C01A1B
:100B5000524183088B4201D38B00C01A5241430893
:100B60008B4201D34B00C01A5241411A00D20146B8
:100B7000524110467047FFE701B5002000F006F82B
:100B800002BDC0460029F7D076E770477047C046DF
:100B9000002B11D1002A0FD1002900D1002802D04A
:100BA0000021C943080007B4024802A1401802907E
:100BB00003BDC046D9FFFFFF03B4684601B50298E4
:100BC00000F034F8019B9E4602B00CBC7047C04652
:100BD000F0B5CE469946030C9C46130447461B0CC1
:100BE0001D000E0061460404240C80B50700100CA3
:100BF0004B436543414360432C0CC01820188C467E
:100C0000834203D980235B029846C4444946794312
:100C10005643030C2D042D0C89196344000440191C
:100C2000C918C0BCB946B046F0BDC046F0B557467D
:100C30004E464546DE46E0B504000D009246994614
:100C400083B08B4230D82DD04946504600F0D8F8BA
:100C500029000600200000F0D3F8331A9846203B04
:100C600034D49B4653465A46934042461F0053464F
:100C700093401E00AF423BD8AF4200D179E05B46C3
:100C8000A41BBD41002B00DA76E000220023009275
:100C9000019301235A469340019301234246934016
:100CA000009329E08242CFD90022002300920193D1
:100CB0000C9B002B01D01C605D600098019903B073
:100CC000F0BCBB46B246A946A046F0BD42469B4694
:100CD00020239B1A5246DA40414613004A468A4076
:100CE000170042461F43534693401E00AF42C3D9EC
:100CF00000220023009201934346002BD8D0FB072B
:100D000072081A4346467B080EE0AB4201D1A2426C
:100D10000CD8A41A9D41012024196D410021013EE7
:100D200024184D41002E06D0AB42EED9013E2419C5
:100D30006D41002EF8D1009801995B460019694178
:100D4000002B24DB2B005A464446D3402A00E240C5
:100D50001C005B461500002B2ADB26009E4033005A
:100D600026004746BE403200801A9941009001910A
:100D70009EE7A342BCD882E74246202300219B1A6B
:100D80000022009101920122DA40019285E7424659
:100D900020239B1A2A0046469A402300F3404446EB
:100DA00013432A00E2401C005B461500002BD4DAF6
:100DB00042462F002023260097409B1ADE403B002E
:100DC0003343CDE71C2101231B04984201D3000CBF
:100DD00010391B0A984201D3000A08391B099842AE
:100DE00001D30009043902A2105C40187047C046C4
:100DF00004030202010101010000000000000000E4
:100E000010B5002903D1FFF7DDFF203002E0080014
:100E1000FFF7D8FF10BDC04603008218934200D1EF
:100E2000704719700133F9E7F8B5C046F8BC08BC43
:100E30009E467047F8B5C046F8BC08BC9E46704751
:100E4000000020400000244000000040000000009E
:100E5000000023400000304000003140000090407E
:100E60000000224000001040000090402020202080
:100E700020302008085C2C8000002E00FF030401B5
:100E800003007C00400000007FFE00000004000022
:100E9000000000000019324B647D07020200008050
:100EA0004000080B100000000000FF012002001F9E
:100EB00000800004FF081018001000140018001C27
:100EC0004044484C5000000008100000080000009A
:100ED00004000000041000000012000004210000C3
:100EE000002100000016000040114002C41300134E
:100EF0008013A01340138813A81320001C000000C7
:100F00000000000028FDFF7F01000000000000102D
:100F100000080008800000002C0F00108008000866
:100F200008000000C00E000854000000F50000108A
:040F3000C9000010E4
:020000041008E2
:1000000000F80708110108100D0000008501081014
:100010008501081085010810850108100000000006
:100020000000000000000000000000008101081036
:1000300081010810000000008101081081010810F2
:10004000ED010810F7010810010208100B0208105A
:10005000150208101F0208102902081033020810A8
:100060008101081081010810810108108101081028
:100070008101081081010810810108108101081018
:100080000348044B834202D0034B03B11847704727
:100090001003020810030208000000000548064B88
:1000A0001B1AD90F01EBA301491002D0034B03B176
:1000B00018477047100302081003020800000000F0
:1000C00010B5064C237843B9FFF7DAFF044B13B1A0
:1000D0000448AFF300800123237010BD280A0208F2
:1000E0000000000064A9081008B5054B1BB10549C4
:1000F0000548AFF30080BDE80840FFF7CFBF00BF61
:10010000000000002C0A020864A90810704770471C
:10011000FFF7FCFF72B6144C144DAC4209DA2168AB
:100120006268A368043BA2BFC858D050FAE70C34F9
:10013000F3E70F490F4A00209142BCBF41F8040B7E
:10014000FAE70D480D490860BFF34F8F00F0C8F87B
:1001500000F0B8F8FFF7DBFF07F042F900F074FA9F
:1001600007F062F9FEE7000070A9081088A90810DE
:10017000280A0208201302080000020808ED00E027
:10018000FEE7FEE700B504207146084202D0EFF317
:10019000098002E0EFF30880043005F0B5F8FEE7CF
:1001A000FEE7000010B504460D4B1B681B6803F505
:1001B000807353F82020002A09DB04F01F02640931
:1001C000012393406034074A42F8243010BD53F8AD
:1001D0002030C3F30903044A52F823309847ECE770
:1001E000E80F020800E100E01003020808B5002053
:1001F000FFF7D8FF08BD08B50120FFF7D3FF08BD02
:1002000008B50220FFF7CEFF08BD08B50320FFF7B1
:10021000C9FF08BD08B50420FFF7C4FF08BD08B535
:100220000520FFF7BFFF08BD08B50620FFF7BAFF9E
:1002300008BD08B50720FFF7B5FF08BD002304E09F
:10024000054A064942F823100133B3F5BF7FF7DDB5
:10025000014BC3F8FC35704710030208A1010810D8
:100260007047000010B5002004F060FE124CC4F886
:10027000000604F084FEC4F80406002004F056FED4
:10028000C4F80806D4F8043603F5742202F23F22BB
:100290000A49A1FB0212920C84F80C2603F2E73300
:1002A000074AA2FB03239B09C4F81036002004F080
:1002B0003DFEC4F8140610BD1003020883DE1B4384
:1002C000D34D621008B5054803F02EFAFFF7C8FFBA
:1002D000FFF7C8FFFFF7B2FF08BD00BF18A5081061
:1002E000EFF3108172B6074AD2F8883043F47003F6
:1002F000C2F88830BFF34F8FBFF36F8F81F3108840
:10030000704700BF00ED00E008B500F09FF800F076
:1003100009F800F02FF808BD08B500F01FF800F04C
:1003200069F808BD08B50021084604F022FA352214
:100330000021084604F0FEF90021084604F012FAF4
:100340000321002004F015FA00220321104604F0D6
:10035000F1F90321002004F005FA08BD08B50348AF
:1003600000F080FF024800F07DFF08BD6492081095
:100370006092081010B5164C164A0021204603F072
:1003800043FA154A0121204603F03EFA134A02219E
:10039000204603F039FA124A0321204603F034FACA
:1003A00004F580740F4A0421204603F02DFA0E4A0A
:1003B0000521204603F028FA0C4A0621204603F0C6
:1003C00023FA0B4A0721204603F01EFA10BD00BF96
:1003D000800A3140B8930810F09308106892081012
:1003E000A092081080930810D8920810109308105B
:1003F0004893081008B50C4800F034FF0B4800F093
:1004000031FF0B4800F02EFF0A4800F02BFF0A488E
:1004100000F028FF094800F025FF094800F022FFFE
:10042000084800F01FFF08BDEC9308102494081042
:100430009C920810D4920810B49308100C930810E2
:10044000449308107C930810FEE7000008B50322CF
:100450000021084604F082F9B421002004F0A6FF30
:1004600005F00CF804F06AFB002004F0C9F9002044
:1004700004F088FA0121002004F09AFA012004F027
:1004800081FA0121084604F093FA002004F090F963
:10049000002004F0B5F9012004F09AF900210120B0
:1004A00004F0B4FA0021022004F0B0FA0021032085
:1004B00004F0ACFA0121084604F0DEF90021012025
:1004C00004F002FA0021012004F028FA012004F0CF
:1004D00063FD0221084604F0CFF90021022004F058
:1004E000F3F90021022004F019FA022004F054FD6F
:1004F000012004F04DF90821002004F057FF0021ED
:10050000084604F083FA194804F04AFB30BB184847
:1005100004F0F4FB30BB0021084604F0ADF90021E3
:10052000084604F0D1F90021084604F0F7F9FFF776
:1005300099FE104800F096FE00B101BE0E4800F092
:1005400091FE00B101BE0D4800F08CFE00B101BE6D
:100550000B4800F087FE00B101BE08BD0420FFF784
:1005600073FFD4E70420FFF76FFFD4E72894081047
:10057000400D03003C940810409408104494081067
:100580004894081008B5044804F086FF08B100201C
:1005900008BD0248FCE700BF800002080000020618
:1005A00010B500F05DFE044638B154B1FFF7ACFE63
:1005B000FFF7B2FE5CB1204610BD01F03BFC0446E3
:1005C000F3E740F6E441002001F06AFCEEE7FFF7B4
:1005D000D9FF0446EFE70000014B01221A70704773
:1005E000840A020830B587B0144B0FCB06AC04E97F
:1005F0000F000022FF21124802F086F800B101BE70
:100600000F4C02A9204602F0E9F842F21071204690
:1006100001F0DEFF04F1080500220A49284601F036
:100620008FFD0122009207232946204601F0D2FDCA
:10063000204602F093F807B030BD00BFAC9508101B
:100640004C0A0208D905081000B583B0FFF7A8FFCF
:1006500000B101BE62B64FF4E1330093FF231A46A6
:100660000021012005F0AAF900B101BE01230622F4
:100670001946282000F0EAFC00B101BE224806F02D
:1006800017FD224806F07AFD214806F077FD214843
:1006900006F074FD204806F071FDFFF7A3FF1F4828
:1006A00006F06CFD19E01E4802F058F81D4806F0EF
:1006B00065FD1D4806F0FCFC1C4A137883F001031D
:1006C00013701B4B1B7843B1194B00221A70194B46
:1006D0001B689B690122C3F88C2201221649174826
:1006E00002F04CFE0028ECD1134B1B780D2BE8D107
:1006F0000E4B1B78002BD6D0094802F04FF810485B
:1007000006F03CFDD5E700BF4C9408105894081043
:100710009C940810B0940810EC94081034950810BC
:100720004C0A02088C950810A49508109C00020839
:10073000840A0208E80F0208850A0208101002085D
:1007400074950810000000000230800803D00130CA
:100750000238FCD100BF00BF7047EFF3108072B6C3
:10076000704780F31088704701BE0148704700BF92
:100770000202020408B5407804F0D8FB08BD00006E
:1007800010B504468A4294BF00230123834209D056
:1007900080F001038A422CBF002101218B4201D04D
:1007A00044B110BD054BA3FB0232910C002004F0B4
:1007B000FDFDF5E7FFF756FDF3E700BF83DE1B43C2
:1007C000F8B505460139072935D8DFE801F00426D8
:1007D000340634343424002600E00226002004F0DD
:1007E0008FF80746002004F061F804F07EFB20FA41
:1007F00007F720FA06F46B788BB13146687804F07D
:1008000063F806466B78BBB978B9224639460020B2
:10081000FFF7B6FF10E00326E0E70126DEE72246F9
:1008200039460120FFF7ACFFE7E73A4621460020B2
:10083000FFF7A6FF00E0014E3046F8BD00020204BB
:1008400008B519B1407804F0A7FB08BD407803F063
:10085000FFFFFAE708B5407803F0ECFF08BD0000A1
:100860002DE9F84304460E461546DDF82080DDF8F4
:10087000249001279F404FEA520C1CEB00004FF0E0
:10088000000341F1000105F07DFDC9F80000B84208
:1008900001D9C9F80070B8F1000F1AD098F80070AB
:1008A000D9F8002000232046314605F06BFD0246B2
:1008B0002946384602F0B2FE0028B8BF4042B8F1DF
:1008C000000F08D0D8F80430834206D30020BDE8DA
:1008D000F8830020F3E70020F9E70148F7E700BFBD
:1008E0000002020408B590F800C01CF0020F06D107
:1008F0004A1E41780CF0030003F01CFF08BD0023E2
:100900004A1E41780CF0030003F01CFFF6E770B5B7
:1009100084B004460D46164604F024FB01462378B5
:1009200013F0020F0ED013F0010F24D01D2303AAE1
:10093000019200962A464801C90EFFF791FFE0B1E7
:1009400004B070BD13F0010F13D0102303AA01925D
:1009500000962A4608460021FFF782FF0028EFD1C3
:100960002078039A013A617800F0030003F0E2FE78
:10097000E6E70823EAE71523D9E7039B5A0920781D
:1009800003F01F03013A617800F0030003F0DAFE80
:10099000D6E708B50378417803F0030004F092FB32
:1009A00008BD08B531B10378417803F0030003F0C6
:1009B000D9FE08BD0378417803F0030003F0D9FEA7
:1009C000F7E708B50378417803F0030003F0D8FE99
:1009D00008BD0000004870473CA308102DE9F04115
:1009E00082B007460D469046084602F045FEC6B264
:1009F000002401E00134E4B2B44213D205238DF89F
:100A000004308DF805508DF8064001A800F02AFC4E
:100A100003460028EED13D707C700122BA70C7F801
:100A2000048000E0024B184602B0BDE8F08100BF30
:100A3000020D020408B5034648B11A78122A08D0FC
:100A4000032A0AD95A6812681846904708BD01BEA1
:100A5000F3E71846FFF7FEFEF8E71846FFF7B1FF89
:100A6000F4E710B5034648B11878122808D00328D7
:100A70000AD9586844681846A04710BD01BEF3E77C
:100A80001846FFF7DDFEF8E71846FFF78AFFF4E7A0
:100A900010B5044668B12046FFF7CCFF98B1237823
:100AA000122B08D0032B0AD963689B68204698470D
:100AB0000AE001BEEFE72046FFF75CFE04E02046B7
:100AC000FFF767FF00E0002010BD10B5034648B1F6
:100AD0001878122808D003280AD95868C46818461C
:100AE000A04710BD01BEF3E71846FFF73DFEF8E74B
:100AF0001846FFF70CFFF4E708B5034648B11A782B
:100B0000122A08D0032A0AD95A681269184690474F
:100B100008BD01BEF3E71846FFF752FEF8E7184696
:100B2000FFF7E0FEF4E710B582B0044690B1A37879
:100B300003B901BE05238DF8043023788DF8053004
:100B400063788DF8063001A800F0D0FB0023A37075
:100B500002B010BD01BEEAE708B5034648B11A78F5
:100B6000082A08D0092A00D001BE184600F0CEF9A4
:100B700008BD01BEF3E7184600F0BAF8F8E708B57B
:100B8000034648B11878082808D0092800D001BECB
:100B9000184600F001FA08BD01BEF3E7184600F060
:100BA000E3F8F8E708B5034648B11A78082A08D0F0
:100BB000092A00D001BE184600F00EFA08BD01BE99
:100BC000F3E7184600F000F9F8E710B50446B8B1AD
:100BD0002046FFF7C1FF00B101BE02212046FFF70A
:100BE000E1FF00B101BEB4F8781059B92378082BA1
:100BF00010D02378092B11D094F87A3093B110BD1E
:100C000001BEE5E702222046FFF7B9FF0028EDD03C
:100C100001BEEBE7204600F01DF8EAE7204600F0B1
:100C200017F9E9E7204600F061FBE8E70023032B12
:100C300006D8054A52F8232022B90133DBB2F6E781
:100C40000020704701207047880A020801EB8000ED
:100C50001230704770B50646443002F0B9FDB178E5
:100C60001E4802F0BFFD7478A400E4B2B3781C44BF
:100C7000E4B2A034204604F063FA0546204604F0AE
:100C80000FFB284600F014FE002D18DB4001C0B217
:100C900005F1604505F5614585F80003204604F03F
:100CA000FFFA72789200D2B2B3781344DBB20C4AE6
:100CB000002142F82310FFF7B9FF38B170BD05F0ED
:100CC0000F054001C0B2074B5855E7E7064801F051
:100CD000A5F8064B00221A70F0E700BF00002A407A
:100CE000880A020814ED00E0F8000208980A0208D9
:100CF000054B9B68DBB2817801228A401A4214BFFF
:100D000001200020704700BF00002A4038B50229AA
:100D100022D0082920D0012914D001BE19E00023D7
:100D20001D430134E4B2032C0FD875B90C4B53F8B2
:100D300024000028F3D0FFF7DBFF08B10123EFE721
:100D40000023EDE700242546EDE785F00105054B7E
:100D50001D70044B187838BD024B00221A70F8E75A
:100D6000880A0208980A0208022A27D810B50C46F9
:100D70008378032B00D901BE114910331B02CA58D6
:100D800022F00042CA50436C23F0C003436443F096
:100D9000800343648378032B00D901BE08491033D4
:100DA0001B02CA5842F00042CA5081784078FFF7CF
:100DB0004DFF0146204600F0CFFC10BD01487047B2
:100DC00000002A400106020402291ED88378032B62
:100DD00000D901BE0E4910331B02CA5822F000424E
:100DE000CA50436C23F03003436443F03003436440
:100DF0008378032B00D901BE054910331B02CA5862
:100E000042F00042CA50002070470248704700BFBD
:100E100000002A40010602040023872B06D8054A59
:100E200052F8232022B90133DBB2F6E700207047E5
:100E3000012070479C0A020800EB4003C0EBC3008E
:100E4000800080B2084480B2163080B27047000043
:100E500070B50446443002F06DFC63788BBB2548C6
:100E6000A17802F073FC637813B9A6785B2E2AD9B7
:100E7000012B2AD001BE40F2FF36304604F060F963
:100E80000546304604F00CFA284600F011FD002D0E
:100E900021DB4001C0B205F1604505F5614585F8EB
:100EA0000003304604F0FCF96278A3785C2101FB72
:100EB0000233114A002142F82310FFF7ADFF88B139
:100EC00070BD0E48CCE7A436D7E7A6782B2ED1D834
:100ED00006F58076D1E705F00F054001C0B2084B5A
:100EE0005855DEE7074800F099FF074B00221A70BB
:100EF000E6E700BF000028409C0A020800002940E5
:100F000014ED00E008010208BC0C020843786BB93C
:100F1000074B084A1268B2F862100B448178B2F8A5
:100F2000642002FB01335868C00F7047024BF0E7A2
:100F300000002840E80F02080000294038B50229C7
:100F400022D0082920D0012914D001BE19E00023A5
:100F50001D430134E4B2872C0FD875B90C4B53F8FC
:100F600024000028F3D0FFF7D1FF08B10123EFE7F9
:100F70000023EDE700242546EDE785F00105054B4C
:100F80001D70044B187838BD024B00221A70F8E728
:100F90009C0A0208BC0C0208022A19D838B504467B
:100FA0000D46B0F8783003B901BE636C23F0C0037E
:100FB000636443F080036364A1786078FFF73CFFCB
:100FC0000146284600F0C8FB08B9A4F8780038BDEF
:100FD0000048704701060204022908D8436C23F038
:100FE0003003436443F030034364002070470148FA
:100FF000704700BF0106020408281CD8DFE800F093
:101000000923051E0B0D0F1113000A20012917D00B
:101010007047082070470C20F8E70D20F6E70E20F7
:10102000F4E70F20F2E74B1EDBB2012B01D90820B9
:10103000ECE70E20EAE701BE0820E7E70B20E5E732
:1010400000F0070070470020E2E700002DE9F043C0
:1010500087B0884617461E462D4B1B78E3B94FF0E4
:10106000000C07E02B4C002544F82C500CF1010C2F
:101070005FFA8CFCBCF1170FF4D9002407E0254B74
:1010800003EB44030022A3F860200134E4B2032CF4
:10109000F5D91F4B01221A700B238DF80830C408B4
:1010A0008DF8094000F007058DF80A50029BADF855
:1010B00014301B0C8DF81630059BADF810301B0C4E
:1010C0008DF81230049BADF80C301B0C8DF80E30EF
:1010D00003A800F0C7F8814618B1484607B0BDE83C
:1010E000F08341463846FFF787FF0246172C0BD89E
:1010F000094B1B68986900EBC4100023009333462A
:10110000294602F0B7FCE8E7034B1B689869F4E74F
:10111000BD0C020828090208E80F020870B504286F
:1011200029D08E4611461D287ED80246404C34F800
:101130001050441C1D2C22D8E4B23D4E36F8144009
:101140004FF0010C0CFA02FC3A4A0CEA0202002AA7
:1011500063D0C21E182A39D8DFE802F014383A38B2
:1011600038162C383038383838383238343838383F
:10117000383838362E004FF00C0E0520D3E740F2F9
:101180000A24DDE72C4A00E02C4A1C80002A46D0C5
:10119000033818283DD8DFE800F01D3C3E3C3C1FDA
:1011A0001D3C343C3C3C3C3C363C383C3C3C3C3CB0
:1011B0003C3A3200224AE8E7224AE6E7224AE4E7DC
:1011C000224AE2E7224AE0E7224ADEE70022DCE7A1
:1011D000214ADAE7022600E00126B6451FD232F89E
:1011E0001E00284411FA80F119800EF10101B1426C
:1011F00015DA8E4632F811402C44A4B20FE00126D5
:10120000EBE71826E9E70126E7E70126E5E70326ED
:10121000E3E70026E1E71A26DFE775441D801B8817
:10122000A34203D2002070BD0C48FCE70B48FAE74C
:10123000E0A30810280B0A0C5CA3081094A3081064
:1012400098A30810DCA308109CA30810CCA30810D6
:10125000D0A30810D4A3081060A30810000D020446
:1012600000207047F0B583B004460027FFF775FAF9
:1012700006460DF10603A27861782078FFF74EFF4D
:10128000054668B9BDF80630C3F3C70203F007038B
:101290001449895C012202FA03F3194218BF174668
:1012A00005B9EFB92DB13046FFF75BFA284603B018
:1012B000F0BD0DF10603A27861782078FFF72EFFCC
:1012C00005460028EFD1BDF80630C3F3C70103F08F
:1012D0000703044801229A40435C13434354E2E766
:1012E000014DE0E7C00C0208010D020430B583B0E7
:1012F0000446FFF732FA05460DF10603A27861783D
:101300002078FFF70BFF014668B9BDF80630C3F33C
:10131000C70003F00702074C01239340DB435BB295
:10132000225C1340235401B101BE2846FFF719FA8D
:1013300003B030BDC00C02082DE9F04F87B001901A
:101340008846924603936E4B33F81020431C1D2BA6
:101350001BD8DBB26A4931F81390012301998B4005
:10136000684803401846CB1E182B33D8DFE803F03B
:1013700010323432321226322A32323232322C32A7
:101380002E32323232323230280040F20A29E4E77B
:101390005D4F00E05D4F019B033B182B39D8DFE820
:1013A00003F01D383B3838201D382C383838383891
:1013B0002F3832383838383838352900544FEAE772
:1013C000544FE8E7544FE6E7544FE4E7544FE2E761
:1013D000544FE0E70027DEE7534FDCE74FF0020B06
:1013E00001E04FF0010BA9EB02091FFA89F9B7B12F
:1013F000002418E04FF0010BF5E74FF0180BF2E76F
:101400004FF0010BEFE74FF0010BECE74FF0030B50
:10141000E9E74FF0000BE6E74FF01A0BE3E7002493
:101420000AE00134E4B2631C5B4505DA37F81420A6
:1014300037F813309A42F4D000252E46CDF808B084
:10144000834625E0012333E0019B8DF814308DF8AD
:1014500015408DF8166005A8FFF704FF0346002825
:1014600034D1119A019911705470967042E0013490
:10147000E4B2631C9A423ADD37F8131037F814309F
:101480009942F4D0002601E00134E4B20135ADB256
:101490004D452ED2B8F1000FD4D031462046109BD6
:1014A00098470146B8F8000000F05BF9034658B1D0
:1014B000BAF1000F08D031462046039B9847BAF88E
:1014C000001000F04EF90346002BBDD1BBF1000F18
:1014D000DAD09FB1631C02990A468B4204DA37F8CE
:1014E00013106B1C9942C2DD0136F6B2CEE700261E
:1014F000CCE70E4B184607B0BDE8F08F0C4BF9E770
:10150000E0A30810280B0A0C5CA3081094A3081091
:1015100098A30810DCA308109CA30810CCA3081003
:10152000D0A30810D4A3081060A30810020D020471
:10153000000D020400B583B00191002100910B461B
:101540000A46FFF7F9FE03B05DF804FB02460023EC
:10155000184603B1704702B118460133DBB2F8E711
:1015600010B50446FFF7F2FF204610BD00201528F5
:1015700007D8054B1B5C13B90130C0B2F7E740B286
:1015800070474FF0FF307047C897081038B50446D1
:101590000D46FFF7EBFF114B1B5D83B1104B1A6833
:1015A0009368B2F874100B44201A1030B2F8762009
:1015B00002FB00F000EB8501C858C0B238BD084BF3
:1015C0001A689368B2F874100B44B2F8762002FBE4
:1015D00004F404EB8501C858EFE700BFC897081072
:1015E000E80F02082DE9F84304461E469DF82080C6
:1015F0009DF82470224B1B5CC3B1411ACCB220462B
:10160000FFF7AEFF46EA00262046FFF79FFF46EAB7
:10161000004040F0804040F4805027B14246002115
:1016200004F006F923E004F051F920E01546FFF735
:1016300097FF4FEA002945EA00252046FFF786FF7D
:1016400045EA004549EA060949EA004949F080416E
:101650007FB90C4B19688B68B1F874201A44B1F843
:10166000763003FB04F404EB860300209850BDE8B9
:10167000F88343460022284604F07EF8F7E700BFCF
:10168000C8970810E80F02082DE9F04782B00C4611
:101690009046460800F00107FFF768FF8146274B98
:1016A0001D5D1B57002B15DB152D40D8244B13F85F
:1016B00004A000242A46234B33F81530A34232D924
:1016C000214B53F8253033F81430B34208D001349D
:1016D000A4B2EFE705F07F0555FA80F5EDB2E3E738
:1016E0001A4B9B5C1BB11FFA8AF3A34221D1B8F1BC
:1016F000020F04D051462846FFF748FFD8B9B8F189
:10170000000F01D100200FE0B8F1010F14BF00233A
:101710000123019300975346E2B25FFA89F128460C
:10172000FFF760FF00E00A4802B0BDE8F087084814
:10173000FAE70748F8E70748F6E700BF60960810A1
:10174000A8A1081010A30810A0000208C89708104C
:10175000010C0204000C020408B50222FFF794FFFA
:1017600008BD08B50022FFF78FFFB0FA80F04009EE
:1017700008BD000070B582B00D468378BF2B16D827
:10178000DA08114909688E6906EBC216C27803F0BF
:101790000704009201232A462146304602F06AF9E6
:1017A0000A2D08D00B2D0AD0002002B070BD064AC9
:1017B00012689669EAE70123A340B360F4E70123C6
:1017C000A3407360F0E700BFE80F020810B582B0D5
:1017D0000146BF2810D8C308094A1268906900EB77
:1017E000C310002400940123082201F0070102F035
:1017F00041F9204602B010BD014B1B689869F0E723
:10180000E80F020800EB40001FFA80FC624600204F
:101810000CF103039C4518D210B5D308D1B202F0E5
:10182000070E5FFA8CF4091BC9B2084CE35C43FA5B
:101830000EF303F001038B400343D8B2013292B29E
:101840000CF103039A42E8D310BD7047040D02085F
:1018500010B500EB40001FFA80FE73460AE001203D
:10186000A040124C14F80C2022EA000204F80C20CC
:1018700001339BB20EF10302934215D24FEAD30C0F
:10188000DAB203F007045FFA8EF0121AD2B2012026
:1018900000FA02F20A42E2D0A040044C14F80C20F4
:1018A000024304F80C20E3E710BD00BF040D02085A
:1018B000F8B506460024FF2700E00134B4F5BF7FE9
:1018C0000CD8A5B2284603F03BFCB042F5D128461F
:1018D000FFF798FF8742F0D90746EEE73846F8BD94
:1018E000F0B583B00C4616460E4AA2FB002C4FEA18
:1018F0005C12CCF34715120302F47F2240EA020780
:10190000FFF7A6FF2846FFF7D3FF844228BF04460F
:10191000E4B2ADF8007001943146684603F068FC0B
:1019200003B0F0BDABAAAAAA38B50346084850F8E0
:101930002340084850F8235044B12DB100231846E5
:101940000BB92046A84738BD0123F8E70123F6E785
:10195000B80D0208980D02082DE9F04105460F4622
:10196000084601F042FE064600244FF0010817E049
:10197000022229463046FFF7D7FF0136F6B2B442BD
:10198000F6D8022F1AD0082F18D0012F19D1B8F18C
:10199000000F16D00C4B01221A7012E00134E4B291
:1019A000072CEED8324629462046FFF7BDFF804679
:1019B0000028F3D1012FF1D10026E0E7024B0022ED
:1019C0001A704046BDE8F081940D020802460020DE
:1019D000072806D8044B1B5C934203D00130C0B2E9
:1019E000F6E7FF20704700BF40A4081008B5112893
:1019F0001ED01AD35F2818D8592816D3593806286C
:101A000013D8DFE800F00417080A0C0E10000120BC
:101A1000FFF7DCFF08BD0320FAE70420F8E7052004
:101A2000F6E70620F4E70720F2E701BEFF20EFE724
:101A30000020EDE70220EBE708B5EFF30580103852
:101A400000B203F097FB40F2FF33984205D0FFF756
:101A5000CDFF034B53F8200008BD0020FCE700BF7A
:101A6000B80D02082DE9F04383B080460E461746B4
:101A70009946002416E099F802206B789A4201D02A
:101A8000002325E0012323E017238DF80430735C45
:101A90008DF805306B788DF8063001A8FFF7E2FB72
:101AA000C8B10134BC421AD2A10006EB840595F8F6
:101AB00002C0C445F5D1B9F1000FE5D099F8003066
:101AC000172BE1D199F80120735C9A42D3D00023FF
:101AD000002BE6D004E001A8FFF708FC00E0002599
:101AE000284603B0BDE8F0832DE9F04782B0804678
:101AF0000E4617460024A24600E00134BC4221D223
:101B00004FEA840906EB8405AB784345F5D116F816
:101B10002400FFF75BFF17238DF804308DF80500D4
:101B20006B788DF8063001A8FFF79CFB0028E4D104
:101B300001A8FFF7DBFB16F80920012393404AEACE
:101B4000030ADAE7504602B0BDE8F087014B187887
:101B5000704700BF940D020838B50C461546FFF7D4
:101B600035FF134B43F82040124B43F8205000231D
:101B70001A4603E00132D2B20133DBB2072B07D899
:101B80000B4850F823000028F6D0012AF2D105E0D6
:101B90002AB904B101BE084800F040F938BD012A55
:101BA000FCD1002CFAD0044800F02CF9F6E700BF75
:101BB000B80D0208980D0208180102082DE9F0413D
:101BC0000446884616461F4604E0012388F8003084
:101BD000E3B1E46840F28975AC4217D02568002D66
:101BE000F7D094F804C036EA0C0CF2D1637937EAE6
:101BF0000303EED0A26839463046A8470028E4D156
:101C0000012F01D00123E1E70023DFE72046BDE8F3
:101C1000F08170B504460D46164600E0E468AC421B
:101C200010D02368002BF9D094F804C036EA0C0CCD
:101C3000F4D1627912F0020FF0D1A268022130468D
:101C40009847EBE770BD38B505460C46FEF785FDB5
:101C5000E36813B1FEF785FD38BD2B68E3602C60A7
:101C6000F8E738B504460D46FEF777FD01E003F1CD
:101C70000C04236840F28972934205D0AB42F6D13E
:101C8000EB6823600023EB60FEF76BFD38BD0000BE
:101C90002DE9F04182B00D4601F0B3FC044601236A
:101CA0008DF80730022808D0082806D0102804D064
:101CB0001A4B1E681A4B1F6803E0184B1F68184B1D
:101CC0001E6823462A460DF107013846FFF776FFC6
:101CD00080469DF8073063B930469DF807300BB950
:101CE000012C0ED09DF80730B3B1002002B0BDE842
:101CF000F08123462A460DF107013046FFF75EFFCB
:101D0000EBE72A4601463046FFF783FF2A46414665
:101D10003846FFF77EFFE5E70248E7E72C010208B7
:101D200028010208FF00420008B508460821FFF715
:101D3000AFFF08BD10B50446FFF7AAFF042C02D080
:101D4000082C17D010BD4FF0E0231B6913F0010FD2
:101D500004D00E4B1B7813B1012300E000230C4A82
:101D60001370002BEED04FF0E022136923F0010333
:101D70001361E7E7064B1B78002BE3D04FF0E0221E
:101D8000136943F001031361DCE700BFDA0D0208B9
:101D9000380E020808B50846012902D1044B1B88F9
:101DA0001BB90221FFF7C6FF08BD0248FCE700BFD0
:101DB000D80D0208FF00420008B508460121FFF7D0
:101DC000B9FF08BD38B584468E4615460C4C0FCC7D
:101DD000CCF80000CCF80410CCF80820CCF80C307B
:101DE00007CCCCF81000CCF81410CCF81820CCF8A4
:101DF00000508CF804E0604603F04EFB38BD00BF95
:101E000058A4081008B5014618B10348FFF71BFF96
:101E100008BD01BEF9E700BF2C01020808B5014664
:101E200018B10348FFF71DFF08BD01BEF9E700BF69
:101E30002C01020808B503F08FFB38B90E4A0021C7
:101E40000E48FFF7BFFF20B90D4808BD03F06EFB39
:101E5000F4E70C4A01210C48FFF7B4FF08B9084821
:101E6000F3E70A4A02210A48FFF7ACFF08B1002055
:101E7000EBE70348E9E700BFB91D08101C0E020894
:101E8000011A0204951D0810E40D0208291D08100E
:101E9000000E020808B503F00FFA002008BD00008C
:101EA000024600B101BE024B43F82210704700BF4A
:101EB0003C0E02080023522B06D8054A52F8232074
:101EC00022B90133DBB2F6E70020704701207047EA
:101ED000940E020830B40139072900F29180DFE83E
:101EE00001F089048F2E8F8F8F5C474B00221A7070
:101EF000012027E0012050700133DBB2434A02EB9E
:101F00000112127B9A4210D9404A02EB0112527B15
:101F10001A443F4850F82220002AEDD0D801285812
:101F20000028E7DB00205070E6E70134E4B2022C21
:101F300007D821462301354AD5580023DEE700247F
:101F4000F5E7012030BC70470133DBB22F4A02EBCA
:101F50000012127B9A4212D92C4A02EB0012527BD9
:101F60001A442B4951F82220002AEDD05278002A39
:101F7000EAD0D901625842F000426250E4E70CF125
:101F8000010C5FFA8CFCBCF1020F09D860464FEAE5
:101F90000C131E4AD4580023D8E74FF0000CF2E788
:101FA000194B00221A700120CCE70132D2B2174B34
:101FB00003EB01131B7B934216D9144B03EB011364
:101FC0005B7B1344124850F82330002BEDD0586847
:101FD0005C7A9B7A03EB042300EBC3135B6853EA40
:101FE0000343E2D50020ADE70131C9B2022903D88D
:101FF0000022DCE70021F9E70120034B1870A1E77C
:1020000001BE01209EE700BFE00F020874A4081083
:10201000940E020804280AD8DFE800F00B0B050331
:10202000070002207047032070470520704701BE5B
:102030000020704770B5EFF30580103800B203F050
:1020400099F8002301E00133DBB2022B11D8244AB6
:1020500002EB0312D1898142F5D8214A02EB031227
:10206000127B0A449042EEDAC2B2C9B2521AD2B21C
:1020700000E00022022B01D901BE70BD18491801F1
:1020800001EB03130D585B7B1A44164B53F82240A7
:10209000FEF763FB626A5AB1617AA37A03EB01230C
:1020A00005EBC313996F21EA02029A67002363626A
:1020B000FEF757FB627AA37A03EB022305EBC31307
:1020C000DE6F26B1E36913B13146206A9847627A20
:1020D000A37A03EB022305EBC3152E672B6FCCE726
:1020E00074A40810940E0208014B1878704700BFC2
:1020F000E00F020810B50446002306E003F11402C5
:10210000002124F812100133DBB2042BF6D9FFF7BB
:10211000D1FE50B1627A074B03EB02135B7BA27ACC
:102120001344054A42F8234010BD0448FFF76AFEF5
:10213000F0E700BF74A40810940E020830010208F2
:102140002DE9F04105468846174643781C4E06EBBC
:1021500003135C7B83781C44E4B2FEF7FEFA194B50
:1021600053F82430C3F81C801F62FEF7FAFA6B782C
:1021700006EB0316F489AB781C44A4B2124B1B681F
:102180001B6804F5205253F82230002B01DABDE819
:10219000F0810E4A03212046FFF7A2FB204603F000
:1021A00071F8204602F0CCFF0028F0DB00F01F029F
:1021B000400901239340064A42F82030E7E700BF78
:1021C00074A40810940E0208E80F020835200810C5
:1021D00000E100E0F8B505460C4616461F469DF89E
:1021E000182041686078A37843EA00234FEA132E51
:1021F0005FFA83FC03F47F43634401EBC313986FDE
:102200003AB126EA00030CEB0E2C01EBCC110B6764
:102210000B6F6B68617894F802C04CEA012C4FEAAE
:102220001C2E5FFA8CF10CF47F4C8C4403EBCC1C1D
:10223000DCF870C0BCF1000F00D03AB31AB33043E1
:1022400001EB0E2103EBC11398676278174B03EB88
:102250000213DD89A3781D44ADB2284602F070FF59
:10226000044639462846FFF7F3FA2046FFF720FBDD
:10227000002C13DB4001C0B204F1604404F561445A
:1022800084F80003F8BD20EA0600D9E7FEF765FAF6
:102290006B6A33436B62FEF764FAD6E704F00F040F
:1022A0004001C0B2024B1855ECE700BF74A40810FF
:1022B00014ED00E001F201107047000070B5044613
:1022C0000E461546407A042A00F29080DFE802F0BC
:1022D0000328415B7500626800F0030CA37A03EBEE
:1022E0000C2302EBC312936CDBB2916C21F0FF0163
:1022F00091646268A17A01EB0C2102EBC112D16CEE
:1023000021F44071D164053BD9B2FFF7D3FF0146F8
:102310003046FFF721FA10B9143524F8150070BDC6
:10232000626800F0030CA37A03EB0C2302EBC312E8
:10233000536C1B0E516C21F07F4151646268A17A8D
:1023400001EB0C2102EBC112D16C21F0C001D16470
:10235000D9E7626800F0030CA37A03EB0C2302EBCD
:10236000C312536CC3F30743516C21F47F015164D2
:102370006268A17A01EB0C2102EBC112D16C21F051
:102380003001D164BFE7626800F0030CA37A03EB6D
:102390000C2302EBC312536CC3F30723516C21F4DB
:1023A0007F4151646268A17A01EB0C2102EBC112FA
:1023B000D16C21F00C01D164A5E7626800F0030C38
:1023C000A37A03EB0C2302EBC312536CDBB2516C08
:1023D00021F0FF0151646268A17A01EB0C2102EB4C
:1023E000C112D16C21F00301D1648CE7004896E75B
:1023F0000022020470B50446457A867A0846FFF743
:1024000009FE2B4B03EB051393F80DC0B4445FFAA0
:102410008CFC626805F00301A37A03EB012502EB53
:10242000C5156D6D05F00705854223D003EB012529
:1024300002EBC5156D6DC5F30215A84235D103EB4E
:10244000012302EBC312536D23F0700353656368DD
:10245000A27A02EB012203EBC2135A6D42F0700222
:102460005A65144A12F80C3023F0020302F80C30BB
:10247000002070BD03EB012302EBC3135A6D22F061
:1024800007025A656368A27A02EB012203EBC213CA
:102490005A6D42F007025A65064A12F80C3023F0D2
:1024A000010302F80C300020E3E70348E1E700BF36
:1024B00074A40810400E02080022020470B50546FC
:1024C00088B36A7A3E4B03EB0213DE89AB7A1E4473
:1024D000B6B2304602F034FE0446304602F0E0FE6A
:1024E0002046FFF7E5F9002C1FDB4001C0B204F1E4
:1024F000604404F5614484F80003304602F0D0FEE5
:102500006B68002B45D06A7A2D4B03EB02135B7B83
:10251000AA7A13442B4A002142F82310FFF7CAFC81
:1025200050B1002412E001BECBE704F00F044001DB
:10253000C0B2254B1855E0E72448FFF76FFCF0E7E1
:1025400021462846FFF756FF0134E4B2042CF7D9A0
:10255000002401E00134E4B2042C0AD804F114038D
:1025600035F813100029F5D022462846FFF7A6FEBD
:10257000F0E769686A7AAB7A03EB0223DB01CA5899
:1025800022F00042CA502B7833B100236B601E2327
:102590002B722B7D2BB970BD05F10800FEF7A6FE4E
:1025A000F3E7287B697B00F0030002F0E2F800B15A
:1025B00001BE05F10C00FEF7B6FA00232B75EAE721
:1025C00074A40810940E020814ED00E03001020813
:1025D000F0B583B004460E46037D53B10025154B7C
:1025E00093E8030002AB03E9030025B1284603B0DA
:1025F000F0BD114DF3E704F10C07002211463846F7
:10260000FEF72FFA08B10D4DF0E76A46314638461D
:10261000FEF75BFA08B1094DE8E7002201213846D0
:10262000FEF71FFA08B1054DE0E73846FEF730FA2D
:10263000A061DBE7A4A40810031D0204011D02042D
:10264000F8B504460E4600F10801437A2B481D01F7
:1026500000EB0313405960601879A37A1844C7B29D
:10266000EAB104F10C03D2E9000183E80300184643
:10267000FEF70EFAA061217B627B01F00301384670
:1026800002F06CF850BB617AA37A324643EA01212A
:10269000606802F069FF054615B32846F8BD0123BE
:1026A0001A4604F10C0001F007F8054610B1002DA0
:1026B000F2D1E8E70123237511492046FFF788FF8F
:1026C00005460028F3D1217B627B01F003013846E7
:1026D00002F044F80028EAD00A4DDDE7094DDBE7B7
:1026E0002046FFF707FD6168627AA37A03EB0223B5
:1026F000DB01CA5842F00042CA50CEE774A4081069
:1027000040420F00011D020470B51446064620B178
:10271000FF2904D00F4D284670BD01BEF8E73822CE
:102720000021304604F00AFE31461E2301F8083F1E
:102730001A20FEF7FFFE054628B1002DEBD03046EB
:10274000FFF7BCFEE7E7224603493046FFF778FF74
:102750000546F2E7001D0204ACA4081010B50446BB
:10276000B0B1FFF7C1FCA8B96168627AA37A03EB44
:102770000223DB01CA5842F00042CA506368617A02
:10278000A27A02EB012203EBC21310221A6410BDDD
:1027900001BEE6E70048FAE7031A0204034658B10F
:1027A00059685A7A9B7A03EB0223DB01CA5822F05C
:1027B0000042CA500020704701BEF1E7034650B105
:1027C0005A68587A596B9B7A03EB002302EBC313C8
:1027D00099600020704701BEF2E7000070B59AB022
:1027E00004460D46CB68436368222849684604F0D6
:1027F00087FE6B680093AB6805932B7883F0010329
:102800000293AB785BB1002304936B78012B08D063
:10281000022B08D0002B36D001BE002304E0022397
:10282000F2E7012300E0032303936068657AA17A4D
:1028300001EB052300EBC3139E6F6A4641EA0521B5
:1028400002F070FF617AA37A6A4643EA0121606868
:1028500002F08AFE05466168627AA37A03EB0223DE
:10286000DB01CA5842F00042CA506368617AA27A1A
:1028700002EB012203EBC2139E672046FFF79EFF87
:1028800028461AB070BD0023CEE700BFACA40810E4
:1028900010B5072900D901BE32F01F0300D001BED8
:1028A000154B1B689C69001BC0095B694FEA001C43
:1028B00003EB001003290FD853F80C00C9004FF0A8
:1028C0001F0E0EFA01FE20EA0E0002F01F028A40DF
:1028D000024343F80C2010BD04394368C9004FF08F
:1028E0001F0C0CFA01FC23EA0C0302F01F028A40C1
:1028F0001A434260EFE700BFE80F0208072900D93A
:1029000001BE0C4B1B689A69801AC0095B69020101
:1029100003EB0010032905D89858C900C84000F0FF
:102920001F00704704394068C900C84000F01F000C
:10293000704700BFE80F0208012803D0022803D126
:102940000320704702207047002070470138032899
:1029500009D8DFE800F0020B0406022070470620C9
:1029600070470820704701BE02207047042070475E
:10297000814206D9091A642303FB01F1B1FBF0F08F
:102980007047411A642303FB01F1B1FBF0F070477B
:102990002DE9F04F87B005460E46174698469DF83C
:1029A00040901E23037100234373FF23C3710372FE
:1029B0004372837299421BD0FF2F1DD0FF2E02D18C
:1029C000FF2F00F0F480FDF7C8FE8346794BD3F863
:1029D00000A0FF2E15D1FF2F1BD1B8F1FF0F20D182
:1029E000B9F1FF0F25D1BAF1000F2AD000242FE052
:1029F0009945E1D0704CACE0B8F1FF0FDED06E4CE1
:102A0000A7E00B226D493046FFF76EF80AEA000A8C
:102A1000E1E70B226A493846FFF766F80AEA000A3E
:102A2000DBE70A2267494046FFF75EF80AEA000A38
:102A3000D6E7092264494846FFF756F80AEA000A31
:102A4000D1E75846FDF78DFE5B4C82E00134E4B2DD
:102A50002AFA04F313F0010FF8D017238DF814307D
:102A60008DF8154000238DF8163005AB0B22534925
:102A70003046FEF7F7FF019005AB0B225049384670
:102A8000FEF7F0FF029005AB0A224E494046FEF7E2
:102A9000E9FF824605AB09224B494846FEF7E2FFB3
:102AA0000390FF2E01D0019B73B1FF2F01D0029B39
:102AB00053B1B8F1FF0F02D0BAF1000F04D0B9F151
:102AC000FF0F02D0039B03B901BE17238DF810300E
:102AD0002046FEF77BFF8DF8110000238DF81230A1
:102AE00004A8FEF7BFFB04465846FDF73AFE84BB38
:102AF000059BAB801B0CAB71FF2E2ED10CB9FF2FA9
:102B000034D164B9BAF1000F09D00821504600F061
:102B100010FD044618B90123EB7285F809805CB9F1
:102B2000039B4BB10621184600F003FD044618B97B
:102B300001232B7385F80A9054B9119BFBB1002334
:102B40006B7305F11003119A92E8030083E8030008
:102B500014B3204607B0BDE8F08F0621019800F0BD
:102B6000E8FC04460028C9D12E72C7E70821029864
:102B700000F0DFFC04460028C3D1EF71C1E7012358
:102B80001A46291D05F1100000F096FD0446B0FA22
:102B900080F35B096B73DBE768791E30297C6A7C04
:102BA00001F00301C0B201F0D9FD0446D1E7024CA7
:102BB000CFE700BF1CA40810001F020434960810C1
:102BC00008960810BC950810E4950810F8B5314D2A
:102BD0002E68FEF731FF2860002859D004460146D0
:102BE00051F8180BD0F88C5FD0F8CC7F01F054FB73
:102BF00015F0200F09D023682022C3F8802FD3F8C6
:102C0000803FE36C0BB11046984715F0400F09D098
:102C100023684022C3F8802FD3F8803FE36C0BB1C8
:102C20002020984715F0010F04D0E36C13B14FF446
:102C30008070984715F4007F13D023684FF400721A
:102C4000C3F8802FD3F8803F2268D2F8883F43F43E
:102C5000007123F4EE6323F0030303B101BEC2F855
:102C6000881F17F0400F09D023684022C3F8C02FF7
:102C7000D3F8C03FE36C0BB11020984717F0010F59
:102C800004D0E36C13B14FF400709847014B1E6001
:102C9000F8BD00BFE40F020838B50C46154602F037
:102CA00061F905FB04F4B0FBF4F038BD2DE9F843FD
:102CB00080460E460824FF27A14601E00134E4B215
:102CC000102C15D806FB04F502F04CF900EB550169
:102CD0002246B1FBF5F14046FFF7DEFF01463046E4
:102CE000FFF746FEC0B28742E8D90746A146E5E7AE
:102CF0004846BDE8F883000070B504464079FEF709
:102D000065FE05461B4B53F82000214641F8540B45
:102D100004F1180201F060F8064608B1304670BDB3
:102D20000023C4F8A030C4F8A430C4F89830124B83
:102D300033F81550114A03212846FEF7D1FD2846E5
:102D400002F0A0FA284602F0FBF9002807DB00F0A9
:102D50001F02400901239340094A42F82030094AE2
:102D600021466079FEF7F8FE2268136843F00043BD
:102D70001360D3E720A4081048A40810CD2B081036
:102D800000E100E0852F081070B582B00446F0B174
:102D9000206840B104F1180101F0DAF9206801F06F
:102DA000B3F90023236023791E2B12D194F8A830A5
:102DB000002B4CD094F8B0303BB994F8B4301E2BB3
:102DC0005CD194F830311E2B60D102B070BD01BED1
:102DD000DEE76079FEF7FAFD304B33F810603046DD
:102DE00002F0AEF90546304602F05AFA2846FEF7E0
:102DF0005FFD002D15DB4001C0B205F1604505F512
:102E0000614585F80003304602F04AFA0022114677
:102E10006079FEF7A1FE94F8A8304BB11E23237110
:102E2000C4E705F00F054001C0B21D4B5855EAE755
:102E300017238DF804306079FEF7C8FD8DF8050082
:102E4000A3798DF8063001A8FEF750FAE6E7E01DF9
:102E500000F064FB04F1080000F060FB04F10A00DC
:102E600000F05CFB04F1090000F058FB637B002BD1
:102E7000A0D004F11000FDF756FE9BE704F1B4006A
:102E8000FDF7A3FE1E2384F8B4309AE704F598708A
:102E9000FDF79BFE1E2384F8303196E748A4081006
:102EA00014ED00E02DE9F04704460D461646D0F833
:102EB000AC308B4201D0C4F8AC10637B13B93048FE
:102EC000BDE8F0872746002157F8100B01F040F9C4
:102ED000002211463846FDF7C4FD28B12268136868
:102EE00043F000431360EBE704F104092946484628
:102EF000FFF7DCFE8046A06505FB00F502F032F826
:102F000000EB5500B0FBF5F529463846FDF7F4FD1A
:102F1000824638BB424629464846FFF7BDFE06B109
:102F20003060002201213846FDF79BFDE26D94F8E8
:102F300070301BB34FF48033082A01D94FF4404A54
:102F400043EA0A0308F1FF3808F00F0843EA0803D0
:102F5000226843F0007313602268136843F0004353
:102F60001360ADE7002201213846FDF77AFD2268A3
:102F7000136843F0004313605046A1E75346DBE774
:102F8000061F02042DE9F04704461546037AFF2B7D
:102F90000CD0DA08BF2B05D8B8480068876907EB62
:102FA000C21704E0B54A1268976900E00027A27AC8
:102FB000FF2A0ED0207B18B3D008BF2A05D8AF4E09
:102FC0003668B66906EBC01604E0AC48006886694E
:102FD00000E0002603F0070802F00709102911D0CD
:102FE00020290FD0013D072D00F2AD81DFE815F05B
:102FF000D8004801AB01B201AB01AB01AB01480104
:103000000026E7E7012D08D04FF0000A082D45D033
:10301000042D7ED05046BDE8F087274657F8180BA0
:10302000394601F037F910F0010F02D04FF0000AD5
:10303000ECE73946206801F02BF9D4F8B83110F0EC
:10304000010F0CBF4FF0010A4FF0000A002B14BF14
:103050004FF0000A0AF0010AD4F8B431002B14BF73
:103060004FF0000A0AF0010ABAF1000FCED0216831
:10307000D1F80832C3F30803D1F80822C2F3C032F2
:10308000D34208D1D1F80833C3F30803002BBDD0D5
:103090004FF0000ABAE74FF0000AB7E70022D4F871
:1030A000AC102046FFF7FEFE86B394F89D2032F068
:1030B0001F0300D001BE714B19688B69F31ADB093D
:1030C0004969180101EB0313B9F1030F10D80B582C
:1030D0004FEAC90C1F2707FA0CF723EA070302F08F
:1030E0001F0202FA0CF213430B504FF0010A8FE754
:1030F000A9F104015868C9001F278F4020EA070082
:1031000002F01F028A4002435A60EEE74FF0010AC4
:103110007EE7002E00F01B81584B1A689369F31A62
:10312000DB095269190102EB0313B9F1030F23D82C
:1031300053584FEAC902D34003F01F0384F89D306F
:10314000012303FA09F3B3604C4B1A689369F31A2D
:10315000DB095169180101EB0313B9F1030F13D80F
:103160000B584FEAC9021F2404FA02F223EA0203B1
:103170000B504FF0010A4DE7A9F104025B68D20041
:10318000D34003F01F03D9E7A9F1040959684FEAB6
:10319000C9091F2202FA09F221EA02025A60E8E78D
:1031A000254655F8180B294601F074F810F0010F68
:1031B00002D04FF0000A2DE72946206801F068F898
:1031C000D4F8B83110F0010F0CBF4FF0010A4FF0E6
:1031D000000A002B14BF4FF0000A0AF0010AD4F8CD
:1031E000B431002B14BF4FF0000A0AF0010ABAF103
:1031F000000F3FF40FAF2368D3F88C0FD3F8CCCF78
:10320000D3F80822C2F30802D3F80812C1F3C03180
:10321000CA4240F0A280D3F80833C3F30803002B5E
:1032200040F09E80002840F09E80BCF1000F40F0EE
:103230009D8077B141463846FFF760FB84F89C00DB
:10324000012303FA08F3BB60002241463846FFF72A
:103250001FFB76B149463046FFF750FB84F89D00CE
:10326000012303FA09F3B360002249463046FFF711
:103270000FFB2946206800F06BFFCBE6E80F020841
:103280002268136843F000431360EFB194F89C2068
:1032900032F01F0300D001BE374B1B6899697F1ABB
:1032A000FF0958693D0100EB0717B8F1030F2ED84D
:1032B00041594FEAC8031F279F4021EA070102F046
:1032C0001F029A400A434251002E52D094F89D307A
:1032D00033F01F0200D001BE274A12689169761AA6
:1032E000F6095169340101EB0616B9F1030F1CD838
:1032F00008594FEAC9021F25954020EA050003F04E
:103300001F03934003430B514FF0010A82E6A8F1DB
:1033100004037968DB001F20984021EA000102F0D5
:103320001F029A400A437A60CEE7A9F1040271684D
:10333000D2001F20904021EA000103F01F039340B8
:103340000B437360E0E701BE4FF0000A62E64FF006
:10335000010A5FE64FF0010A5CE64FF0000A59E609
:103360004FF0000A56E64FF0000A53E64FF0000A0D
:1033700050E64FF0010A4DE6E80F0208F8B50646A0
:103380000F461546FEF7E2FBA8B93368D3F8403381
:103390002C4602E03368D3F84033B3F1FF3F07D146
:1033A000002DF7D04CB10120FEF774FD013CF1E790
:1033B0003B700020F8BD0248FCE70248FAE700BF76
:1033C000031A0204021F020438B504460D46FEF734
:1033D000BDFB28B1044806E02946206800F0EBFB5D
:1033E0000028F9D0002038BD031A020408B50346AE
:1033F00028B131B193F8B00028B9064808BD01BE24
:10340000F7E701BEF6E753F8180B00F0ADFE002019
:10341000F4E700BF041F02042DE9F04182B00D461D
:1034200016461F46DDF828800446002868D04FF471
:10343000E0720021204603F081FF012384F8B030C0
:103440001E2384F8B43084F830314FF4E133C4F8EB
:10345000AC30099B01939DF8203000933B463246E7
:1034600029462046FFF794FA054668BB442200210E
:1034700004F1540003F062FF0C23A3650823E36505
:10348000022384F861301423A3670B23C4F880302F
:103490003F23C4F89030E37A84F87430B8F1000F19
:1034A0000ED0D8F80030E36598F80400FFF74EFA24
:1034B00084F8610098F80800FFF73EFA84F862008B
:1034C0002046FFF719FC0546ADB9B8F1000F07D04B
:1034D000D8F80C1021B1D8F810202046FFF786FF4D
:1034E000637B7BB923681A68C2F381328023D3409F
:1034F0005B08C4F8BC316DB9284602B0BDE8F08164
:1035000001BE94E70022D4F8AC102046FFF7CAFCB5
:103510000546E7E72046FFF737FCEDE710B5044620
:103520000078FF2800D110BD00F037F8FF2323708A
:10353000F9E770B584B004460D4683780B228DF808
:103540000020DA088DF8012003F007038DF802301F
:10355000009BADF80C301B0C8DF80E30039BADF8C2
:1035600008301B0C8DF80A30029BADF804301B0CA0
:103570008DF8063001A8FDF775FE064610B13046FD
:1035800004B070BD29462046FEF7F4F80646002830
:10359000F5D001A8FDF7AAFEF1E710B584B0044606
:1035A000FEF714F900B101BE0B238DF80030E308DB
:1035B0008DF8013004F007048DF80240009BADF84F
:1035C0000C301B0C8DF80E30039BADF808301B0C33
:1035D0008DF80A30029BADF804301B0C8DF80630D4
:1035E00001A8FDF783FE04B010BD431E072B05D8CC
:1035F000DFE803F0060604060404040601BE012009
:103600007047431E072B05D8DFE803F006060406C3
:103610000404040601BE01207047000038B50128EB
:1036200007D002280CD010B101BE002000E0881A9B
:1036300038BD8A1A0F4B03FB02F292FBF1F0F7E759
:1036400000238A1A63EB030E90184EEB0E0C8018C1
:103650004EEB0C0C4FEA4C1444EAD064450140197F
:103660004CEB040C80180A464EEB0C0102F03AFEBB
:10367000DEE700BF40420F00122819D8DFE800F053
:103680000A1A0C0E181818181818181814181012EE
:103690001818160020207047002070470820704737
:1036A00001207047002070470420704703207047B6
:1036B00001207047102070472DE9F8430646174651
:1036C00098460B4631B11B78052B05D00024A14646
:1036D000124B17E001BEF6E701BE114B1846BDE8DC
:1036E000F8834FF00109BEB1FDF774F9024629468F
:1036F0003046FDF773F903460028EFD0B8F1000F0C
:10370000ECD00134032CE9D8064A155DAF42E8D06D
:10371000B9F1000FF5D0E6E701BEE5E7020D0204BE
:103720000202020414A50810014B1860704700BF84
:10373000E80F0208034638B100221A605A609A6006
:10374000DA601A615A61704701BEF5E730B41E4B6A
:1037500098422FD01D4B1B6893F83A308B428CBF98
:103760000023012303B101BE184D2B68B3F862207A
:103770000244B3F8643001FB03F30024D4502B68F7
:10378000B3F862200244B3F8645001FB0522946050
:10379000B3F862200244B3F8645001FB0522D46000
:1037A000B3F862201044B3F8643001FB03018C616C
:1037B00030BC7047054B1B6893F839308B428CBF87
:1037C00000230123CEE700BF00002840E80F0208D5
:1037D0000023036043608360C360036143618361CE
:1037E000C3617047032900D901BE01F11002120222
:1037F0000023835000EB012000F58152136041F259
:103800008802835070470000002800F02A81844617
:10381000002A00F0288170B5072900D901BE13687D
:10382000012B00D901BE536833F00F0003D1012BE7
:1038300001D0092B00D101BE137A33F01F0300D051
:1038400001BED368032B00D901BE1369012B00D937
:1038500001BE5369012B00D901BE136A012B00D9A7
:1038600001BE536A012B00D901BE936A012B00D916
:1038700001BED36A032B00D901BE136B072B00D9FD
:1038800001BED369032B00D901BE9369012B00D976
:1038900001BE01238B404C0010340320A0400343A1
:1038A0007248006890F887E05CF80E0020EA030098
:1038B000936903F001038B400343D06900F00300D8
:1038C000A04003434CF80E30107A072900D901BEFE
:1038D00030F01F0300D001BE644B1C68A369ACEB41
:1038E0000303DB0964691D0104EB0313032900F2E0
:1038F000A4806359CE004FF01F0E0EFA06FE23EA95
:103900000E0300F01F00B0400343635153680729C2
:1039100000D901BE33F00F0003D1012B01D0092BD8
:1039200000D101BE4FEA810E5048006890F88550E2
:103930005CF805000F2404FA0EF420EA040003F0FA
:103940000F0303FA0EF303434CF80530D36808293C
:1039500000D901BE032B00D901BE4FEA410E4348F6
:10396000006890F884505CF80500032404FA0EF413
:1039700020EA040003F0030303FA0EF303434CF8B8
:1039800005301369082900D901BE012B00D901BEF9
:10399000DCF8180001248C4020EA040003F0010345
:1039A0008B400343CCF818305369072900D901BE76
:1039B000012B00D901BE2D4D286890F886E05CF8F7
:1039C0000E0001248C4020EA040003F001038B4028
:1039D00003434CF80E302B6893F888E05CF80E40F7
:1039E00024F0FF04136A03F00103506A400000F062
:1039F00002000343906A800000F004000343D06A91
:103A0000C00000F018000343106B4001C0B2034334
:103A1000880000F47E70834023434CF80E30136816
:103A2000072900D901BE012B00D901BEA3B901238A
:103A30008B40CCF80430002070BD0C1F5D68E400A2
:103A40004FF01F0E0EFA04FE25EA0E0500F01F00CF
:103A5000A0402843586059E701238B40CCF8083038
:103A6000E9E7034870470248704700BFE80F0208C3
:103A700001005A00F0B59DF814E0072900D901BEF5
:103A800032F00F0403D1012A01D0092A00D101BE6E
:103A9000012B00D901BE3EF01F0400D001BE072952
:103AA00000D901BE3EF01F0400D001BE264C2468A0
:103AB000A569A0EB050C4FEADC1C64694FEA0C1603
:103AC00004EB0C1C03292DD8A559CF004FF01F0C77
:103AD0000CFA07FC25EA0C050EF01F0E0EFA07FE85
:103AE00045EA0E05A55104684FF0010C0CFA01FCE3
:103AF00024EA0C0C03F001038B4043EA0C0303603F
:103B0000114B1B6893F88540035989004FF00F0C47
:103B10000CFA01FC23EA0C0302F00F028A401A435C
:103B20000251F0BD0C1FDCF80450E4001F26A64033
:103B300025EA06050EF01F0E0EFA04FE45EA0E05F4
:103B4000CCF80450CFE700BFE80F020810B4D0F85B
:103B5000003303F01F030133082B13D9102B13D9A3
:103B6000002393420BD2D0F8404341F82340013365
:103B7000F7E7D0F84043CC5401339342F9D35DF8D2
:103B8000044B70470023F8E700239342F7D2D0F8A4
:103B9000404321F813400133F7E710B51446D0F83D
:103BA0000833C3F308039A4200D31C462246FFF7AA
:103BB000CDFF204610BD0268C2F381328023D3407E
:103BC000D0F80822C2F308029A4203D0C0F840128B
:103BD000012070470020704710B4D0F8003203F085
:103BE0001F030133082B13D9102B13D90023934241
:103BF0000BD251F82340C0F840420133F7E7CC5CC8
:103C0000C0F8404201339342F9D35DF8044B70474A
:103C10000023F8E700239342F7D231F81340C0F8AD
:103C200040420133F7E710B514460268C2F381320F
:103C30008023D340D0F80822C2F308029B1AA34283
:103C400000D81C462246FFF7C7FF204610BD02469B
:103C50000168C1F381318023CB405808136D13F004
:103C6000FF0300D0184670472DE9F04105460C4689
:103C70000368C3F381338026DE40D0F8007207F07A
:103C800018078A6A012A0AD8D5F80832C3F308034C
:103C90009E4202D0A36A012B16D0BDE8F081D1F874
:103CA0002480CA62013AB8F1000F00D002B901BE07
:103CB00041462846FFF7B7FFA36A1B1AA36207B164
:103CC000400040446062DFE70023A3623FBB636AB9
:103CD0001E78FCF742FD4FF40073C5F8803FD5F81D
:103CE000803FC5F84062FCF73CFDD5F8883F23F4DF
:103CF000007222F0010242F4007223F4EE6323F01A
:103D0000030303B101BEC5F8882F236843F0020303
:103D10002360636B002BC0D001209847BDE7636A26
:103D20001E88D6E770B505460C46FFF790FF06469D
:103D3000A169E26901B102B901BE2846FFF72DFF72
:103D4000236A03442362E3691B1AE3613BBBA36854
:103D50000BB3E368B3421CD3731E2968C1F38131EE
:103D60008022CA40934200D301BED5F8042322F03A
:103D7000FF02DBB21343C5F804330123C5F8C83F83
:103D8000636823F001036360636B0BB10420984701
:103D900070BD013BE1E70023C5F8C83FF0E7A26929
:103DA000D5F8001311F0180F00D040000244A261B2
:103DB000B342EDD2013B2968C1F381318022CA4070
:103DC000934200D301BED5F8042322F0FF02DBB2F8
:103DD0001343C5F80433DBE7002800F08A8103466B
:103DE000002900F0888110B40878022800D901BEAB
:103DF000487B0238C0B2062800D901BE887B20B1BA
:103E0000022802D0032800D001BE91F82100012829
:103E100000D901BE91F82800012800D901BE087818
:103E2000012806D9887F48B148680138062805D995
:103E300003E048680838082800D901BE88680538BA
:103E4000042800D901BE4869FF2800D901BE88694D
:103E5000FF2800D901BE887C30B1087818B988687D
:103E6000092800F08F8001BE886B20F4366020F0B6
:103E70000D0000B101BE086C20F4EE6020F00300DC
:103E800000B101BE0878022800F08180486800F186
:103E9000FF3C087F002800F081804FF480308C6860
:103EA000082C7DD94FF4804420430CF00F0C40EADD
:103EB0000C0040F0007018604C6B1868C0F3813C37
:103EC000802020FA0CF0844200D301BECC6B18682D
:103ED000C0F3813C802020FA0CF0844200D301BE64
:103EE0004C6A1868C0F3813C802020FA0CF08442B0
:103EF00000D301BE0878000600F040701864487FC7
:103F000000284FD040208C7C002C4DD04FF4806492
:103F100020430C7C002C49D04FF4807420434C7C0F
:103F2000002C45D04FF400742043CC6A04F1FF3CD0
:103F30004FEA0C4C0CF4702C40EA0C0091F80DC0C8
:103F40000CF1FF3C0CF0070C40EA0C0091F80EC09D
:103F50004FEA0C1C0CF0300C40EA0C009864986C92
:103F600091F8304034B34FF0807420439864087B5C
:103F700010B34FF48070CC7B04BB0C78022C45D07E
:103F800000241DE0887B00283FF46EAF6BE7887F3C
:103F900000287FF47BAF4FF0000C7AE700207EE72B
:103FA000002481E70020AEE70024B1E70024B5E754
:103FB0000024B9E70024D8E70020DCE74FF40074C0
:103FC00020438C6804F1FF3C0CF01F0C40EA0C000D
:103FD000C3F8000391F814C08869000400F47F005E
:103FE0004CEA0000C3F81003CC6AD3F8000300F0D9
:103FF0001F000330844201D3102C00D901BEC87FBA
:1040000038B10878012864D0002403E04FF400742C
:10401000D6E70024487B013800F00700204391F8E0
:104020000EC04FEA0C1C0CF0300C40EA0C00586437
:10403000087B002850D04FF480748868013800F065
:104040001F0020430C78012C48D000242043C3F8E3
:10405000000291F83400C3F8040391F8200000280E
:104060003FD04FF0007091F82140012C3BD000244C
:10407000204391F82840012C38D00024204391F8A7
:1040800024402043186591F83C00C3F80402886B73
:1040900020F4926020F002000005000DC3F8C80F64
:1040A000086C20F08C004005400DC3F8880F22B347
:1040B0000020506010609060D0601062D061D062CB
:1040C00050638B7F82F830300D4B93635DF8044B67
:1040D00070474FF480749DE70024AEE74FF48034BE
:1040E000B4E70020BFE74FF08074C1E74FF480349D
:1040F000C4E704487047034870470020E6E700BF64
:10410000EFCDAB000160AA00104B03604FF040738D
:1041100003640023836440F20712C0F80023C0F850
:104120000433C0F810334364C0F80022C0F80432EE
:104130000365C0F8C83EC0F8883EC0F8C83FC0F864
:10414000883FC0F8083FC0F8483F70470F000003A1
:10415000036823F00043036021B100224A600A6033
:104160000A62CA6270470000F8B505460E4614465A
:104170001F4653B1BA6B164B9A4200D001BE06B12E
:1041800004B901BE06B114B9F8BD01BEF2E7284674
:10419000FFF75DFDBE60FC6000233B617B618442F4
:1041A00014D3441E2A68C2F381328023D3409C4238
:1041B00000D301BED5F8043323F0FF03E4B2234358
:1041C000C5F804330123C5F8C83FDDE7013CE9E742
:1041D000EFCDAB0008694B69834202D84B69C01A26
:1041E0007047CB684A699B1A184470472DE9F04123
:1041F00007460D46FFF72BFD8046D7F80863C6F348
:1042000008062C6931E0002435E06B6B0BB1082007
:1042100098476B69A34231D10023C7F8C83FECB17E
:10422000013C2C61EC6829463846FFF7D3FF201A81
:10423000804511D900B101383A68C2F38132802338
:10424000D340984200D301BED7F8043323F0FF03D4
:10425000C0B20343C7F80433BDE8F081EC68013C09
:10426000DFE7AB6823F81420013E002ED9D00134DB
:10427000EB68A342C7D06B69A342C6D0D7F84023EE
:10428000D7F8003313F0180FEBD1AB681A55EBE7F2
:10429000486870470868704738B504460D46D0F83E
:1042A000003E13F0080F3FD0D0F8CC3F13F4487312
:1042B0000AD04A681A434A60C0F8C03FD0F8C03FED
:1042C0004B6B0BB110209847D4F8CC3F13F4006F20
:1042D00009D06B6843F400636B604FF40063C4F86B
:1042E000C03FD4F8C03FD4F8CC3F13F0010F0DD03D
:1042F000EB69002B59D1AB681BB129462046FFF76B
:1043000075FF0123C4F8C03FD4F8C03FD4F8CC3FB8
:1043100013F0040F08D06B6B0BB1402098470423B7
:10432000C4F8C03FD4F8C03FD4F8003E13F0040FE7
:104330003AD0D4F88C3F13F4A0630AD02A681A4309
:104340002A60C4F8803FD4F8803F6B6B0BB120200B
:104350009847D4F88C3F13F0010F2BD1D4F88C3F41
:1043600013F4007F12D02B68012B2DD04FF4007373
:10437000C4F8803FD4F8803F2B6823F001032B6002
:104380000023EB626B6B0BB102209847D4F88C3F93
:1043900013F0100F08D06B6B0BB1802098471023DF
:1043A000C4F8803FD4F8803F38BD29462046FFF747
:1043B000B9FCA6E729462046FFF756FC0123C4F8BE
:1043C000803FD4F8803FC9E70023C4F8883FD3E793
:1043D000A1B91F2A31D8FF2B31D81C490968886838
:1043E000B1F87C10084450F8221021F47F411B02E0
:1043F0009BB20B4340F8223000207047012901D0C6
:10440000134870470F2A1CD8B3F5803F1BD20F49C1
:1044100009688868B1F87E10084450F8221021F429
:104420007F0121F47F411B0223F07F4323F0FF0330
:10443000194340F82210002070470548704704488F
:104440007047034870470248704700BFE80F0208F2
:1044500001004A00012900D901BE69B91F2A00D90B
:1044600001BE0C4B19688B68B1F87C100B4453F8F3
:104470002200C0F3072070470F2A00D901BE054B68
:1044800019688B68B1F87E100B4453F82200C0F312
:104490000F207047E80F0208032901D01848704721
:1044A000072A26D8B3F1807F25D210B401991F299D
:1044B00023D8144C21688868B1F88210084450F859
:1044C0002210C9B241EA032340F8223023689868D9
:1044D000B3F88230184450F8221021F0F801019B03
:1044E000DB00DBB20B4340F8223000205DF8044BC8
:1044F000704703487047024870470148F6E700BF1D
:1045000001004A00E80F020810B4881EC0B201285A
:1045100005D901BE032908D05DF8044B7047002B74
:10452000F7D001980028F5D1F3E7072A00D901BE9A
:104530000A480468A168B4F88240214451F8221066
:10454000090A196001688B68B1F882100B4453F8AE
:104550002230C3F3C403019A1360DDE7E80F0208B9
:1045600003292BD809B91F2A0AD9012903D0032905
:1045700004D0154870470F2A02D9F8E7072A1FD838
:10458000124B1B6893F846C084451BD900B593F8BD
:1045900079E001FA0EF14FF0030C0CFA0EFC01EA7F
:1045A0000C0193F878C00CEA02029B68114300F5F5
:1045B000407043F8201000205DF804FB024870476B
:1045C000014870470048704701004A00E80F0208A0
:1045D000032933D809B91F2A0AD9012903D003298D
:1045E00004D0184870470F2A02D9F8E7072A27D8BD
:1045F00010B5154B186890F87B304FF0030E0EFA8B
:1046000003F390F878C090F87A400CFA04F423434E
:1046100090F87940A1400EFA04FE01EA0E010B4326
:104620000CEA020C816843EA0C0242F00042C1F835
:1046300000248368D3F80034002010BD014870477F
:104640000048704701004A00E80F0208032922D8F9
:1046500009B91F2A0AD9012903D0032904D0104817
:1046600070470F2A02D9F8E7072A16D80D4B1868A9
:1046700090F879C001FA0CF1032303FA0CF3194006
:1046800090F8783013408268194341F08041C2F8B5
:10469000001400207047024870470148704700BF6F
:1046A00001004A00E80F02080B4609B91F2A04D985
:1046B000012B08D0032B09D001BE032B35D8DFE82E
:1046C00003F008131E290F2AF7D9F3E7072AF4D9B4
:1046D000F2E7174B19688B68B1F87C100B4453F85C
:1046E000220000F001007047114B19688B68B1F887
:1046F0007E100B4453F8220000F0010070470C4B71
:1047000019688B68B1F880100B4453F8220000F050
:1047100001007047064B19688B68B1F882100B4492
:1047200053F8220000F0010070470020704700BFDE
:10473000E80F020808B513460A4601460020FFF7B5
:1047400047FE08BD00B583B0009313460A460146F4
:104750000020FFF7A1FE03B05DF804FB08B5FFF7EA
:10476000FFFE08BD08B50A4601460020FFF730FFEE
:1047700008BD08B50A4601460020FFF767FF08BDDF
:1047800008B50A4601460020FFF78EFF08BD00006D
:10479000042800D901BE054A136823F440730002BF
:1047A00000F4407003431360704700BF00002740CF
:1047B000072800D901BE054AD2F8003523F00703C7
:1047C00000F007000343C2F8003570470010264090
:1047D000054B1B681968D3F88C208B5823F07F4356
:1047E00043EA00638B507047E80F0208034B1B68D5
:1047F0001A68D3F88C30D058000E7047E80F0208C2
:10480000054B1B681968D3F890208B5823F47F431D
:1048100043EA00238B507047E80F0208044B1B68E3
:104820001A68D3F89030D058C0F30720704700BF03
:10483000E80F0208022806D800F59260034B53F8EF
:104840002000C00F70470020704700BF00002640C6
:10485000431E012B0AD8064A00F5926052F8203018
:1048600023F0004342F82030002070470148704791
:104870000000264001004A0002280FD80F290FD857
:10488000084A00F5926052F8203023F00F0301F03F
:104890000F010B4342F82030002070470248704758
:1048A000014870470000264001004A00022800D954
:1048B00001BE00F59260034B53F8200000F00F009A
:1048C000704700BF00002640022810D8032910D8E6
:1048D000094A00F5926052F8203023F030030901B4
:1048E00001F030010B4342F82030002070470348AC
:1048F00070470248704700BF0000264001004A0090
:10490000022800D901BE00F59260034B53F8200045
:10491000C0F30110704700BF00002640022810D8E5
:10492000094A00F5926052F8203023F4807381F038
:104930000101090201F480710B4342F8203000208C
:1049400070470248704700BF0000264001004A003F
:10495000022801D90020704700F59260044B53F8FB
:10496000203013F4807F0CBF01200020704700BF6F
:1049700000002640024B1869C0F38000704700BF5A
:1049800000002740012800D901BE38B9074AD2F8F3
:10499000083543F00043C2F808357047034AD2F89F
:1049A0000C3543F00043C2F80C3570470010264028
:1049B000024650B9054BD3F8083523F0010301B185
:1049C00001221343014AC2F80835704700102640FF
:1049D000014B1868704700BFF00F0208044BD3F872
:1049E000240500F00300032800D070470220FCE7F4
:1049F0000010264008B5FFF7F1FF022801D0002083
:104A000008BD014B1868FBE7F40F0208B1F5897F78
:104A100017D2B1F5887F02D2022900D901BE03283E
:104A20001CD8FF2911D901F01F010D4B00F14002E4
:104A300043F8221000F59060042243F82020002063
:104A40007047B1F58A7FE9D1E9E701F0070100F588
:104A50009060034B43F820100020704701487047D6
:104A60000000264001004A000246032800D901BE8A
:104A700002F59063074951F8230000F0070004286D
:104A800000D07047403251F8220000F01F0040F47F
:104A90008070F6E70000264008B5032800D901BE63
:104AA000FFF7E2FFB0F5887F1DD009D8012817D0A5
:104AB000022802D1FFF79EFF01E048BB154808BD60
:104AC00040F21113984218D0B0F58A7F06D1124BEC
:104AD000D3F80835002B18DB0020F0E70020EEE7C4
:104AE000FFF776FFEBE70C4BD3F80835002B01DB23
:104AF0000020E4E74FF40040E1E7FFF73BFF08B98F
:104B00000020DCE74FF40040D9E74FF40040D6E73F
:104B10000020D4E700127A0000102640024BD3F8A0
:104B20003005C00F704700BF00102640024BD3F87D
:104B3000400500F0010070470010264010B5164AED
:104B4000D2F8383523F0405343F00053C2F83835DB
:104B50006424114BD3F83835C3F30173022B05D00D
:104B600024B1012000F0C4FB013CF2E70CB90B4872
:104B700010BD012000F0BCFB074BD3F8302522F01C
:104B80000042C3F83025D3F83C2522F00042C3F898
:104B90003C250020ECE700BF0010264002004A0040
